:10007D00F8FCFEFFFFFEFCF8F8FCFEFFFFFEFCF8AF
:10008D000103070F1F3F7FFFFF7F3F1F0F07030177
:10009D000102040810204080000000000000000054
:1000AD000000000000000000010204081020408044
:0B00F600EF1FAC0670011E4C70F622DC
:10000300D2B6D2B5E4FEEFC4131313540124FF9206
:10001300B4EF25E0FFC2B60000D2B60EBE08E7E497
:10002300FEEDC4131313540124FF92B4ED25E0FD38
:10003300C2B60000D2B60EBE08E7E4FEEBC413134B
:1000430013540124FF92B4EB25E0FBC2B60000D2A7
:10005300B60EBE08E7E4FEE50BC4131313540124E4
:10006300FF92B4E50B25E0F50BC2B60000D2B60E45
:09007300BE08E4C2B50000D2B5DC
:01007C002261
:1000BD00E4FAEA9000AD93F4FFEA90009D93F4FD0D
:1000CD00EA90008D93FBEA90007D93F50B120003EF
:0D00DD007F0A7E001200F60ABA10D780D309
:030000000200EA11
:0C00EA00787FE4F6D8FD75810B0200BDA4
:00000001FF
