:0A020D003F065B4F666D7D077F6FB3
:0B01F700EF1FAC0670011E4C70F622DA
:100141001201D3E514C4540F90020D93F508E51480
:10015100540F93F509750A40E513C4540F93F50B39
:10016100E513540F93F50C750D40E512C4540F932C
:0A017100F50EE512540F93F50F226E
:10008F00E4FDEDB40800504D90009EF8282873024F
:10009F0000B60200BA0200C20200C60200CE020081
:1000AF00D20200DA0200DEC2A28002D2A2C2A3C232
:1000BF00A48022C2A28002D2A2D2A3C2A48016C25E
:1000CF00A28002D2A2C2A3D2A4800AC2A28002D26C
:1000DF00A2D2A3D2A474082DF8E6F5807F647E0027
:0C00EF001201F7E4F5800DED6408709636
:0100FB0022E2
:0B0202001201B012014112008F80F8C1
:0E01E90081838587898B8D80828486888A8CAD
:090217000712000012070506168B
:10017B00C2B500C2B600D2B500E4FEEF1392B4EFE5
:10018B00C313FFD2B600C2B6000EBE08EEE4FEEDFE
:10019B001392B4EDC313FDD2B600C2B6000EBE0867
:0401AB00EEC2B500EB
:0101AF00222D
:1000FC00C2B500C2B600D2B500E4FEEF1392B4EF65
:10010C00C313FFD2B600C2B6000EBE08EEE4FEA2C8
:10011C00B4E433FFC43333335480FCEDC3134CFDD0
:10012C00D2B600C2B6000EBE08E5C2B500D2B6000B
:04013C00EDFF7E0055
:01014000229C
:1001B000E4FD7F8E12017BE4FCEC9001F093FF7470
:1001C000122CF8E6FD12017B0CBC07ED7D807F8EC2
:0301D00002017BAE
:1001D300E4FBEB9001E993FF1200FC74122BF8A6E9
:0501E300070BBB07ED56
:0101E80022F4
:03000000020003F8
:0C000300787FE4F6D8FD75811802004AF1
:10000F00020202E493A3F8E493A34003F68001F203
:10001F0008DFF48029E493A3F85407240CC8C333F2
:10002F00C4540F4420C8834004F456800146F6DFC1
:10003F00E4800B0102040810204080900217E47E38
:10004F00019360BCA3FF543F30E509541FFEE493B6
:10005F00A360010ECF54C025E060A840B8E493A37D
:10006F00FAE493A3F8E493A3C8C582C8CAC583CAA8
:10007F00F0A3C8C582C8CAC583CADFE9DEE780BE60
:0102200000DD
:00000001FF
