:10000300438910758DFF758BFFD2ABD2AFD28E2291
:10001E00120003D3E50B9464E50A9400401BE4F54B
:10002E000AF50B3000080509E509700205082000E5
:10003E0008E509150970021508E50964644508709C
:10004E0002C200E50945087002D200D3E50D94F412
:10005E00E50C94014007E4F50CF50D80B6C3E50DF3
:10006E009509E50C95085004D2A180A7C2A180A3E2
:03001B0002007E62
:10007E00C0E0758DFF758BFF050DE50D7002050C4B
:0B008E00050BE50B7002050AD0E03204
:0300000002009962
:0C009900787FE4F6D8FD75812002001E7F
:00000001FF
