:0E00EE000C0848656C6C6F20576F726C6400D4
:1000B9001200D87FC01200FDE4F51474082514F865
:0E00C900E6FF1201070514E514C3940B40ED89
:0100D7002206
:10008F00C2A58F807F017E001200A0D2A77F057EC0
:01009F000060
:1000A000D3EF9400EE9400400F7DC77C01DCFEDDB1
:0800B000FAEF1F70EB1E80E85F
:0100B8002225
:0A00FD00C2A7C2A612008FC2A722FC
:0A010700C2A7D2A612008FC2A722E1
:1000D800C2A77F381200FD7F0C1200FD7F061200B8
:0600E800FD7F010200FD96
:03000000020003F8
:0C000300787FE4F6D8FD75811402004AF5
:10000F000200B9E493A3F8E493A34003F68001F24E
:10001F0008DFF48029E493A3F85407240CC8C333F2
:10002F00C4540F4420C8834004F456800146F6DFC1
:10003F00E4800B01020408102040809000EEE47E63
:10004F00019360BCA3FF543F30E509541FFEE493B6
:10005F00A360010ECF54C025E060A840B8E493A37D
:10006F00FAE493A3F8E493A3C8C582C8CAC583CAA8
:10007F00F0A3C8C582C8CAC583CADFE9DEE780BE60
:0100FC000003
:00000001FF
