:1002BF000102040810204080C0F9A4B0999282F87E
:0802CF0080908883C6A1868E91
:0B030100020E000402100000010801C1
:0B030D00EF1FAC0670011E4C70F622C2
:1001500020B00920B10620B20320B3341202DD2002
:10016000B00920B10620B20320B3E520B005E4F5C4
:100170000EF50F20B106750E00750F0120B2067541
:100180000E00750F0220B3D7750E00750F0380CFD8
:1001900030B0FD30B1FA30B2F730B3F4AE0EAF0F7D
:0101A000223C
:10008F00AE10AF117C037DE81200FB74C72FF58211
:10009F0074023EF583E493F509AE10AF117C007D39
:1000AF00641200FB74C72FF58274023EF583E4934C
:1000BF00F50AAE10AF117C007D0A1200FB7C007DAB
:1000CF000A1200FB74C72DF58274023CF583E4938A
:1000DF00F50BAE10AF117C007D0A1200FB74C72D1B
:0C00EF00F58274023CF583E493F50C22CA
:1001A100E50F450E7007AD11AF080202A6E50F6419
:1001B10001450E7005AF0802026AE50F6402450EA3
:1001C100701DC3E51194FFE510940050090511E578
:1001D100117018051022E5111511700F151022E587
:0C01E1000F6403450E7004F510F51122A8
:10022E00E4FDED14600E14601314601424037016B4
:10023E00C2A28002D2A2C2A3C2A4800AC2A280021B
:10024E00D2A2D2A3C2A474092DF8E6F5807F647EF3
:0B025E000012030D7580FF0DBD04C7EA
:010269002272
:0E02E60012008F12022E1201501201A180F29E
:0602D700FD1202DDD2A1C0
:0802DD007F017E02DEFEDFFA64
:0102E50022F6
:0D02F400D2A01202D8C2A01202DDC2A122C7
:0A031800C2A01202D8D2A00202DD3A
:0201ED00AD075C
:1001EF00E4FBEDC4131313540124FF92A0ED25E09B
:1001FF001202D7C2A11202DD0BBB08E6D2A0120277
:10020F00DDD2A130A0110513E513D394C840F4C279
:0E021F00A11202DD7F0022C2A11202DD7F01CA
:01022D0022AE
:10028C00D2A01202DDE4FCA2A0E4331202D7C2A178
:09029C001202DD0CBC08F0AF05F4
:0102A5002236
:1002A600AC05AA071202F47FA01201EDAF021201FB
:0902B600EDAF041201ED02031882
:10026A00AC071202F47FA01201EDAF041201ED12E5
:10027A0002F47FA11201ED12028C8F12120318AF41
:02028A0012223E
:03000000020003F8
:0C000300787FE4F6D8FD75811302004AF6
:1000FB00BC000BBE0029EF8DF084FFADF022E4CCE9
:10010B00F875F008EF2FFFEE33FEEC33FCEE9DECB1
:10011B00984005FCEE9DFE0FD5F0E9E4CEFD22EDF7
:10012B00F8F5F0EE8420D21CFEADF075F008EF2F41
:10013B00FFED33FD4007985006D5F0F222C398FD32
:05014B000FD5F0EA22CF
:10000F000202E6E493A3F8E493A34003F68001F21F
:10001F0008DFF48029E493A3F85407240CC8C333F2
:10002F00C4540F4420C8834004F456800146F6DFC1
:10003F00E4800B0102040810204080900301E47E4D
:10004F00019360BCA3FF543F30E509541FFEE493B6
:10005F00A360010ECF54C025E060A840B8E493A37D
:10006F00FAE493A3F8E493A3C8C582C8CAC583CAA8
:10007F00F0A3C8C582C8CAC583CADFE9DEE780BE60
:01030C0000F0
:00000001FF
