:100071000102040810204080C0F9A4B0999282F8CE
:0800810080908883C6A1868EE1
:0B009500EF1FAC0670011E4C70F6223D
:10000300E4FDEDB40800504D900012F82828730267
:10001300002A02002E02003602003A0200420200C9
:100023004602004E020052C2A28002D2A2C2A3C262
:10003300A48022C2A28002D2A2D2A3C2A48016C2EA
:10004300A28002D2A2C2A3D2A4800AC2A28002D2F8
:10005300A2D2A3D2A4ED90007993F4F5807F647EBD
:0D006300001200957580FF0DED640870958A
:01007000226D
:0300A00002000358
:0300000002008972
:0C008900787FE4F6D8FD7581070200A026
:00000001FF
