:0B00AC00EF1FAC0670011E4C70F62226
:10007700C29500D29500E4FFFEFDFCEF25E0FFEE00
:1000870033FEC2B600A296E4334207D2B60DBD00D6
:08009700010CED64084C70E35C
:01009F00223E
:10000300120077EFF44E60F8EE70F5EF24F96035E7
:100013002497605524B1604824E0603B24F0602EAF
:1000230024F4601824FE60091470D5B2807F0A801E
:1000330004B2807F1E7E001200AC80C4B2807F3287
:100043007E001200ACB2807F467E001200ACB2800C
:100053007F5A7E001200ACB2807F6E7E001200AC2D
:10006300B2807F827E001200ACB2807F967E001247
:0400730000AC808CD1
:030000000200A05B
:0C00A000787FE4F6D8FD758107020003AC
:00000001FF
