:10019800C0F9A4B0999282F880908883C6A1868E0F
:0B01B400EF1FAC0670011E4C70F6221D
:10000300E508B4320CE4F5087F9412017E8E0D8F5F
:100013000E0508AE0DAF0E7C037DE81200997498AF
:100023002FF58274013EF583E493F509AE0DAF0E0F
:100033007C037DE8120099AA04AB057D647C00AFC4
:1000430003AE0212009974982FF58274013EF58372
:10005300E493F50A7D647C00AF03AE02120099AA13
:1000630004AB057D0A7C00AF03AE021200997498BD
:100073002FF58274013EF583E493F50B7D0A7C0032
:10008300AF03AE0212009974982DF58274013CF50A
:0500930083E493F50C6D
:010098002245
:1000EE00E4FDED14601114601614601714601C24E6
:1000FE0004701EC2A28002D2A2C2A3C2A48012C2E7
:10010E00A28002D2A2D2A3C2A48006C2A2C2A3D24D
:10011E00A474092DF8E6F4F5807F647E001201B414
:07012E007580FF0DBD08BB49
:0101350022A7
:0801BF001200031200EE80F8AB
:10013600C2B6E4FBFAEFC4131313540124FF92B4BE
:10014600EF25E0FFC2B6D2B60BBB00010AEB64088E
:030156004A70E20A
:010159002283
:10015A00E4FFFEC2B6FDFCEF25E0FFEE33FED2B6A9
:10016A00C2B6A2B7E43342070DBD00010CED640C20
:03017A004C70E4E2
:01017D00225F
:10017E00C2B6C2B51201367F06DFFED2B60000C28D
:09018E00B600007E017F5AD2B5D3
:010197002245
:030000000201A852
:0C01A800787FE4F6D8FD75810E0201BFDF
:10009900BC000BBE0029EF8DF084FFADF022E4CC4B
:1000A900F875F008EF2FFFEE33FEEC33FCEE9DEC14
:1000B900984005FCEE9DFE0FD5F0E9E4CEFD22ED5A
:1000C900F8F5F0EE8420D21CFEADF075F008EF2FA4
:1000D900FFED33FD4007985006D5F0F222C398FD95
:0500E9000FD5F0EA2232
:00000001FF
