:10009C00C0F9A4B0999282F880908883C6A1868E0C
:0B00C500EF1FAC0670011E4C70F6220D
:1000030075900FE590640F60317FE87E031200C5A1
:10001300E590640F6024AF90EF24F5601024FE6038
:100023001114601324077012E4F50A800D750A0198
:100033008008750A028003750A037590F0E59064E1
:10004300F060337F0A7E001200C5E59064F06026FD
:10005300AF90EF2450601124E0601124F06011246C
:10006300707013850A0A800E740480067408800277
:10007300740C250AF50AC3E5099432E50894005087
:1000830017E59064F060117F647E001200C50509D6
:08009300E50970E2050880DEBA
:01009B002242
:0D00AC00120003E50A90009C93F58080F39C
:030000000200B942
:0C00B900787FE4F6D8FD75810A0200ACE7
:00000001FF
