:10008D00C0F9A4B0999282F880908883C6A1868E1B
:0B00A900EF1FAC0670011E4C70F62229
:02000E00A90740
:10001000E4FBFAEA701EEB14600C047017C290C285
:1000200091C292E98007D290C291C292ED90008D68
:1000300093F4F5807F647E001200A97580FF0BBBEE
:0900400000010AEB64024A70CAD7
:010049002294
:10007D00438901758C3C758AB0D2AFD2A9D28C223E
:10004A00C29312007DE50BB41420E4F50B0508B247
:10005A0093E508B43C03E4F508E50875F00A84F56D
:10006A0009E50875F00A8485F00AAD0AAF0912009D
:03007A000E80D223
:03000B000200B43C
:0900B400758C3C758AB0050B3215
:0300000002009D5E
:0C009D00787FE4F6D8FD75810B02004A64
:00000001FF
